{
  "contractName": "RealEstateContract",
  "abi": [
    {
      "inputs": [
        {
          "internalType": "contract House",
          "name": "_houseNFT",
          "type": "address"
        }
      ],
      "stateMutability": "nonpayable",
      "type": "constructor"
    },
    {
      "anonymous": false,
      "inputs": [
        {
          "indexed": false,
          "internalType": "uint256",
          "name": "houseId",
          "type": "uint256"
        },
        {
          "indexed": false,
          "internalType": "string",
          "name": "houseURI",
          "type": "string"
        }
      ],
      "name": "houseAdded",
      "type": "event"
    },
    {
      "anonymous": false,
      "inputs": [
        {
          "indexed": false,
          "internalType": "uint256",
          "name": "houseId",
          "type": "uint256"
        },
        {
          "indexed": false,
          "internalType": "string",
          "name": "houseURI",
          "type": "string"
        }
      ],
      "name": "houseSold",
      "type": "event"
    },
    {
      "inputs": [
        {
          "internalType": "address",
          "name": "",
          "type": "address"
        }
      ],
      "name": "addressToUser",
      "outputs": [
        {
          "internalType": "uint256",
          "name": "soldHouses",
          "type": "uint256"
        },
        {
          "internalType": "uint256",
          "name": "boughtHouses",
          "type": "uint256"
        },
        {
          "internalType": "uint256",
          "name": "totalMoneySpend",
          "type": "uint256"
        }
      ],
      "stateMutability": "view",
      "type": "function",
      "constant": true
    },
    {
      "inputs": [
        {
          "internalType": "uint256",
          "name": "",
          "type": "uint256"
        }
      ],
      "name": "houseIdToHouse",
      "outputs": [
        {
          "internalType": "uint256",
          "name": "id",
          "type": "uint256"
        },
        {
          "internalType": "uint256",
          "name": "price",
          "type": "uint256"
        },
        {
          "internalType": "address",
          "name": "owner",
          "type": "address"
        },
        {
          "internalType": "bool",
          "name": "isForSale",
          "type": "bool"
        }
      ],
      "stateMutability": "view",
      "type": "function",
      "constant": true
    },
    {
      "inputs": [
        {
          "internalType": "string",
          "name": "_URI",
          "type": "string"
        },
        {
          "internalType": "uint256",
          "name": "_price",
          "type": "uint256"
        }
      ],
      "name": "addNewHouse",
      "outputs": [],
      "stateMutability": "nonpayable",
      "type": "function"
    },
    {
      "inputs": [
        {
          "internalType": "uint256",
          "name": "_houseId",
          "type": "uint256"
        },
        {
          "internalType": "uint256",
          "name": "_price",
          "type": "uint256"
        }
      ],
      "name": "addExisitingHouse",
      "outputs": [],
      "stateMutability": "nonpayable",
      "type": "function"
    },
    {
      "inputs": [
        {
          "internalType": "uint256",
          "name": "_houseId",
          "type": "uint256"
        }
      ],
      "name": "buyHouse",
      "outputs": [],
      "stateMutability": "payable",
      "type": "function",
      "payable": true
    }
  ],
  "bytecode": "0x60806040523480156200001157600080fd5b5060405162001536380380620015368339818101604052810190620000379190620000fc565b806000806101000a81548173ffffffffffffffffffffffffffffffffffffffff021916908373ffffffffffffffffffffffffffffffffffffffff160217905550506200012e565b600080fd5b600073ffffffffffffffffffffffffffffffffffffffff82169050919050565b6000620000b08262000083565b9050919050565b6000620000c482620000a3565b9050919050565b620000d681620000b7565b8114620000e257600080fd5b50565b600081519050620000f681620000cb565b92915050565b6000602082840312156200011557620001146200007e565b5b60006200012584828501620000e5565b91505092915050565b6113f8806200013e6000396000f3fe60806040526004361061004a5760003560e01c80632bd33e091461004f578063321fe30014610078578063899990ba146100a1578063eddc4269146100e1578063edf53886146100fd575b600080fd5b34801561005b57600080fd5b5061007660048036038101906100719190610e13565b61013c565b005b34801561008457600080fd5b5061009f600480360381019061009a9190610e6f565b61040a565b005b3480156100ad57600080fd5b506100c860048036038101906100c39190610eaf565b61058b565b6040516100d89493929190610f47565b60405180910390f35b6100fb60048036038101906100f69190610eaf565b6105e8565b005b34801561010957600080fd5b50610124600480360381019061011f9190610fb8565b610c19565b60405161013393929190610fe5565b60405180910390f35b60008060009054906101000a900473ffffffffffffffffffffffffffffffffffffffff1673ffffffffffffffffffffffffffffffffffffffff1663937abe9630856040518363ffffffff1660e01b815260040161019a9291906110a4565b6020604051808303816000875af11580156101b9573d6000803e3d6000fd5b505050506040513d601f19601f820116820180604052508101906101dd91906110e9565b9050600160003373ffffffffffffffffffffffffffffffffffffffff1673ffffffffffffffffffffffffffffffffffffffff16815260200190815260200160002060030160405180608001604052808381526020018481526020013373ffffffffffffffffffffffffffffffffffffffff168152602001600115158152509080600181540180825580915050600190039060005260206000209060030201600090919091909150600082015181600001556020820151816001015560408201518160020160006101000a81548173ffffffffffffffffffffffffffffffffffffffff021916908373ffffffffffffffffffffffffffffffffffffffff16021790555060608201518160020160146101000a81548160ff021916908315150217905550505060405180608001604052808281526020018381526020013373ffffffffffffffffffffffffffffffffffffffff1681526020016001151581525060026000838152602001908152602001600020600082015181600001556020820151816001015560408201518160020160006101000a81548173ffffffffffffffffffffffffffffffffffffffff021916908373ffffffffffffffffffffffffffffffffffffffff16021790555060608201518160020160146101000a81548160ff0219169083151502179055509050507f26a46686a090ac40cbb9fca473baeb537fbca3cf1bc9e6c9294d68e27b6bc46181846040516103fd929190611116565b60405180910390a1505050565b3373ffffffffffffffffffffffffffffffffffffffff166002600084815260200190815260200160002060020160009054906101000a900473ffffffffffffffffffffffffffffffffffffffff1673ffffffffffffffffffffffffffffffffffffffff16146104ae576040517f08c379a00000000000000000000000000000000000000000000000000000000081526004016104a590611192565b60405180910390fd5b60016002600084815260200190815260200160002060020160146101000a81548160ff02191690831515021790555080600260008481526020019081526020016000206001018190555060008054906101000a900473ffffffffffffffffffffffffffffffffffffffff1673ffffffffffffffffffffffffffffffffffffffff166323b872dd3330856040518463ffffffff1660e01b8152600401610555939291906111b2565b600060405180830381600087803b15801561056f57600080fd5b505af1158015610583573d6000803e3d6000fd5b505050505050565b60026020528060005260406000206000915090508060000154908060010154908060020160009054906101000a900473ffffffffffffffffffffffffffffffffffffffff16908060020160149054906101000a900460ff16905084565b60006002600083815260200190815260200160002060020160009054906101000a900473ffffffffffffffffffffffffffffffffffffffff169050670de0b6b3a7640000600260008481526020019081526020016000206001015461064d9190611218565b341461068e576040517f08c379a0000000000000000000000000000000000000000000000000000000008152600401610685906112be565b60405180910390fd5b6002600083815260200190815260200160002060020160149054906101000a900460ff166106f1576040517f08c379a00000000000000000000000000000000000000000000000000000000081526004016106e89061132a565b60405180910390fd5b60008054906101000a900473ffffffffffffffffffffffffffffffffffffffff1673ffffffffffffffffffffffffffffffffffffffff166342842e0e3033856040518463ffffffff1660e01b815260040161074e939291906111b2565b600060405180830381600087803b15801561076857600080fd5b505af115801561077c573d6000803e3d6000fd5b50505050610788610c43565b60005b600160008473ffffffffffffffffffffffffffffffffffffffff1673ffffffffffffffffffffffffffffffffffffffff16815260200190815260200160002060030180549050811015610a5157600160008473ffffffffffffffffffffffffffffffffffffffff1673ffffffffffffffffffffffffffffffffffffffff168152602001908152602001600020600301818154811061082c5761082b61134a565b5b906000526020600020906003020160000154841415610a3e57600160008473ffffffffffffffffffffffffffffffffffffffff1673ffffffffffffffffffffffffffffffffffffffff16815260200190815260200160002060030181815481106108995761089861134a565b5b906000526020600020906003020160405180608001604052908160008201548152602001600182015481526020016002820160009054906101000a900473ffffffffffffffffffffffffffffffffffffffff1673ffffffffffffffffffffffffffffffffffffffff1673ffffffffffffffffffffffffffffffffffffffff1681526020016002820160149054906101000a900460ff161515151581525050915033826040019073ffffffffffffffffffffffffffffffffffffffff16908173ffffffffffffffffffffffffffffffffffffffff168152505060008260600190151590811515815250506000826020018181525050600160008473ffffffffffffffffffffffffffffffffffffffff1673ffffffffffffffffffffffffffffffffffffffff16815260200190815260200160002060030181815481106109e1576109e061134a565b5b906000526020600020906003020160008082016000905560018201600090556002820160006101000a81549073ffffffffffffffffffffffffffffffffffffffff02191690556002820160146101000a81549060ff021916905550505b8080610a4990611379565b91505061078b565b50600160003373ffffffffffffffffffffffffffffffffffffffff1673ffffffffffffffffffffffffffffffffffffffff168152602001908152602001600020600301819080600181540180825580915050600190039060005260206000209060030201600090919091909150600082015181600001556020820151816001015560408201518160020160006101000a81548173ffffffffffffffffffffffffffffffffffffffff021916908373ffffffffffffffffffffffffffffffffffffffff16021790555060608201518160020160146101000a81548160ff02191690831515021790555050508173ffffffffffffffffffffffffffffffffffffffff166108fc349081150290604051600060405180830381858888f19350505050158015610b81573d6000803e3d6000fd5b508060026000858152602001908152602001600020600082015181600001556020820151816001015560408201518160020160006101000a81548173ffffffffffffffffffffffffffffffffffffffff021916908373ffffffffffffffffffffffffffffffffffffffff16021790555060608201518160020160146101000a81548160ff021916908315150217905550905050505050565b60016020528060005260406000206000915090508060000154908060010154908060020154905083565b60405180608001604052806000815260200160008152602001600073ffffffffffffffffffffffffffffffffffffffff1681526020016000151581525090565b6000604051905090565b600080fd5b600080fd5b600080fd5b600080fd5b6000601f19601f8301169050919050565b7f4e487b7100000000000000000000000000000000000000000000000000000000600052604160045260246000fd5b610cea82610ca1565b810181811067ffffffffffffffff82111715610d0957610d08610cb2565b5b80604052505050565b6000610d1c610c83565b9050610d288282610ce1565b919050565b600067ffffffffffffffff821115610d4857610d47610cb2565b5b610d5182610ca1565b9050602081019050919050565b82818337600083830152505050565b6000610d80610d7b84610d2d565b610d12565b905082815260208101848484011115610d9c57610d9b610c9c565b5b610da7848285610d5e565b509392505050565b600082601f830112610dc457610dc3610c97565b5b8135610dd4848260208601610d6d565b91505092915050565b6000819050919050565b610df081610ddd565b8114610dfb57600080fd5b50565b600081359050610e0d81610de7565b92915050565b60008060408385031215610e2a57610e29610c8d565b5b600083013567ffffffffffffffff811115610e4857610e47610c92565b5b610e5485828601610daf565b9250506020610e6585828601610dfe565b9150509250929050565b60008060408385031215610e8657610e85610c8d565b5b6000610e9485828601610dfe565b9250506020610ea585828601610dfe565b9150509250929050565b600060208284031215610ec557610ec4610c8d565b5b6000610ed384828501610dfe565b91505092915050565b610ee581610ddd565b82525050565b600073ffffffffffffffffffffffffffffffffffffffff82169050919050565b6000610f1682610eeb565b9050919050565b610f2681610f0b565b82525050565b60008115159050919050565b610f4181610f2c565b82525050565b6000608082019050610f5c6000830187610edc565b610f696020830186610edc565b610f766040830185610f1d565b610f836060830184610f38565b95945050505050565b610f9581610f0b565b8114610fa057600080fd5b50565b600081359050610fb281610f8c565b92915050565b600060208284031215610fce57610fcd610c8d565b5b6000610fdc84828501610fa3565b91505092915050565b6000606082019050610ffa6000830186610edc565b6110076020830185610edc565b6110146040830184610edc565b949350505050565b600081519050919050565b600082825260208201905092915050565b60005b8381101561105657808201518184015260208101905061103b565b83811115611065576000848401525b50505050565b60006110768261101c565b6110808185611027565b9350611090818560208601611038565b61109981610ca1565b840191505092915050565b60006040820190506110b96000830185610f1d565b81810360208301526110cb818461106b565b90509392505050565b6000815190506110e381610de7565b92915050565b6000602082840312156110ff576110fe610c8d565b5b600061110d848285016110d4565b91505092915050565b600060408201905061112b6000830185610edc565b818103602083015261113d818461106b565b90509392505050565b7f73656e64657220646f65736e74206f776e732074686520686f75736500000000600082015250565b600061117c601c83611027565b915061118782611146565b602082019050919050565b600060208201905081810360008301526111ab8161116f565b9050919050565b60006060820190506111c76000830186610f1d565b6111d46020830185610f1d565b6111e16040830184610edc565b949350505050565b7f4e487b7100000000000000000000000000000000000000000000000000000000600052601160045260246000fd5b600061122382610ddd565b915061122e83610ddd565b9250817fffffffffffffffffffffffffffffffffffffffffffffffffffffffffffffffff0483118215151615611267576112666111e9565b5b828202905092915050565b7f556e76616c696420616d6f756e74206f66206d6f6e6579000000000000000000600082015250565b60006112a8601783611027565b91506112b382611272565b602082019050919050565b600060208201905081810360008301526112d78161129b565b9050919050565b7f486f757365206973206e6f7420666f722073616c650000000000000000000000600082015250565b6000611314601583611027565b915061131f826112de565b602082019050919050565b6000602082019050818103600083015261134381611307565b9050919050565b7f4e487b7100000000000000000000000000000000000000000000000000000000600052603260045260246000fd5b600061138482610ddd565b91507fffffffffffffffffffffffffffffffffffffffffffffffffffffffffffffffff8214156113b7576113b66111e9565b5b60018201905091905056fea26469706673582212200294e1f86430b02fd56cea553348c624aadd28896c6cfb119dad80ad0ce486e664736f6c634300080a0033",
  "immutableReferences": {},
  "source": "pragma solidity ^0.8.0;\n\nimport \"./House.sol\";\n\ncontract RealEstateContract {\n    event houseAdded(\n        uint houseId,\n        string houseURI\n    );\n\n    event houseSold(\n        uint houseId,\n        string houseURI\n    );\n\n    House houseNFT;\n\n    struct house {\n        uint id;\n        uint price;\n        address owner;\n        bool isForSale;\n    }\n\n    struct User {\n        uint soldHouses;\n        uint boughtHouses;\n        uint totalMoneySpend;\n        house[] houses;\n    }\n\n    mapping(address => User) public addressToUser;\n    mapping(uint => house) public houseIdToHouse;\n\n\n    constructor(House _houseNFT) {\n        houseNFT = _houseNFT;\n    }\n\n    // Function that creates nft \n    function addNewHouse( string memory _URI, uint _price) public {\n        // Minting house\n        uint houseId = houseNFT.addHouse(address(this), _URI);\n\n        // Adding house object to user\n        addressToUser[msg.sender].houses.push(house(houseId, _price, msg.sender, true));\n\n        // Assing house id to house (mapping)\n        houseIdToHouse[houseId] = house(houseId, _price, msg.sender, true);\n\n        // Emitting events\n        emit houseAdded(houseId, _URI);\n\n    }\n\n    // Function that adds created house \n    function addExisitingHouse(uint _houseId, uint _price) public {\n        // Check if user owns the house \n        require(\n            houseIdToHouse[_houseId].owner == msg.sender,\n            \"sender doesnt owns the house\"\n        );\n\n        // Change mappings\n        houseIdToHouse[_houseId].isForSale = true;\n        houseIdToHouse[_houseId].price = _price;\n\n        // Send house to contract address \n        houseNFT.transferFrom(\n            msg.sender,\n            address(this),\n            _houseId\n        );\n\n\n    }\n\n    function buyHouse(uint _houseId) public payable{\n        address previousHomeOwner = houseIdToHouse[_houseId].owner;\n        // Check if buyer send enough eth\n        require(\n            msg.value == houseIdToHouse[_houseId].price * (1 ether),\n            \"Unvalid amount of money\"\n            );\n\n        // Check if house is for sale\n        require(\n            houseIdToHouse[_houseId].isForSale,\n            \"House is not for sale\"\n        );\n        // Transfer house from contract address to buyer\n        houseNFT.safeTransferFrom(\n            address(this),\n            msg.sender,\n            _houseId\n        );\n\n        // Change house ownership\n        house memory hs;\n\n        // Remove house from previous owner\n        for(uint i = 0; i < addressToUser[previousHomeOwner].houses.length; i++) {\n            if( _houseId == addressToUser[previousHomeOwner].houses[i].id ) {\n                hs = addressToUser[previousHomeOwner].houses[i];\n                hs.owner = msg.sender;\n                hs.isForSale = false;\n                hs.price = 0;\n                delete addressToUser[previousHomeOwner].houses[i];\n            }\n        }\n        // Add house to new owner\n        addressToUser[msg.sender].houses.push(hs);\n\n        // Transfer money from previousHomeOwner to new owner\n        payable(previousHomeOwner).transfer(msg.value);\n\n        // Update mapping \n        houseIdToHouse[_houseId] = hs;\n\n        // Emit event\n        // emit houseSold(_houseId, hs.URI);\n    }\n\n\n\n}",
  "sourcePath": "/home/piotrek/Documents/GitHub/nft-house-contract/contracts/RealEstateContract.sol",
  "compiler": {
    "name": "solc",
    "version": "0.8.10+commit.fc410830.Emscripten.clang"
  },
  "schemaVersion": "3.4.3",
  "updatedAt": "2021-12-28T20:38:03.784Z",
  "networkType": "ethereum",
  "devdoc": {
    "kind": "dev",
    "methods": {},
    "version": 1
  },
  "userdoc": {
    "kind": "user",
    "methods": {},
    "version": 1
  }
}